:100000000C94CC000C94EB000C94EB000C94EB00E3
:100010000C94EB000C94EB000C94EB000C94EB00B4
:100020000C94EB000C94EB000C94EB000C94EB00A4
:100030000C94EB000C94EB000C94EB000C94EB0094
:100040000C94EB000C94BE040C94EB000C94EB00AD
:100050000C94EB000C94EB000C94EB000C94EB0074
:100060000C94EB000C94EB000C94EB000C94EB0064
:100070000C94EB000C94EB000C94EB000C94EB0054
:100080000C94EB000C94EB000C94EB003136330035
:10009000322E3131006E616E00696E660000407A6A
:1000A00010F35A00A0724E18090010A5D4E8000001
:1000B000E87648170000E40B54020000CA9A3B009F
:1000C0000000E1F505000080969800000040420F16
:1000D000000000A08601000000102700000000E8DA
:1000E00003000000006400000000000A000000009F
:1000F000000100000000002C76D888DC674F082340
:10010000DFC1DFAE59E1B1B796E5E3E453C63AE6A5
:1001100051997696E8E6C28426EB898C9B62ED4085
:100120007C6FFCEFBC9C9F40F2BAA56FA5F49005D4
:100130005A2AF75C936B6CF9676DC11BFCE0E40D08
:1001400047FEF520E6B500D0ED902E0300943577FC
:10015000050080841E080000204E0A000000C80C24
:10016000333333330F986E12831141EF8D2114898D
:100170003BE65516CFFEE6DB18D1844B381BF77CE7
:100180001D901DA4BBE424203284725E228100C92C
:10019000F124ECA1E53D270011241FBECFEFD0E1F3
:1001A000DEBFCDBF13E0A0E0B1E0EEE2F5E200E09B
:1001B0000BBF02C007900D92A83BB107D9F714E01E
:1001C000A8EBB3E001C01D92A636B107E1F70E948B
:1001D000E0020C9495120C9400000F931F93823050
:1001E000910589F46F5F7F4F09F088C180E090E04E
:1001F0000E940E0682E390E06EE170E00E948F069E
:1002000080E091E079C18430910509F043C06F5FCF
:100210007F4F09F073C180E090E00E940E0684E1F8
:1002200090E06AE070E00E948F0685E091E00E9415
:10023000110B88E290E064E170E00E948F060E945A
:1002400055058C010E945805BC01C8014E960E94BC
:100250009F090E9455058C010E945805BC01625EF1
:100260007F4FC8010E949F090E9455058C010E9482
:100270005805BC01C8014E970E949F090E94550570
:100280008C010E945805BC01C8010E948F0684E1C0
:1002900091E032C18330910509F043C06F5F7F4F19
:1002A00009F02CC180E090E00E940E0684E190E00D
:1002B0006AE070E00E948F0686E191E00E94110BD7
:1002C00086E490E064E170E00E948F060E9455058C
:1002D0008C010E945805BC01C8014E970E949F09DD
:1002E0000E9455058C010E945805BC01625E7F4F3B
:1002F000C8010E949F090E9455058C010E94580563
:10030000BC01C8014E960E949F090E9455058C01B0
:100310000E945805BC01C8010E948F0684E291E04A
:10032000EBC08130910509F073C061157105F9F4D6
:1003300080E090E00E940E0684E190E06AE070E0C8
:100340000E948F0686E291E00E94110B8CE390E000
:1003500064E170E00E948F060E9455058C010E94A6
:100360005805BC01625E7F4FC801449743C06130AD
:100370007105F9F480E090E00E940E0684E190E0BF
:100380006AE070E00E948F0685E391E00E94110B05
:100390008CE390E064E170E00E948F060E945505B6
:1003A0008C010E945805BC01625E7F4FC8014496D3
:1003B00021C06230710509F0A1C080E090E00E9488
:1003C0000E0684E190E06AE070E00E948F0683E40C
:1003D00091E00E94110B8CE390E064E170E00E94D8
:1003E0008F060E9455058C010E945805BC01625E73
:1003F0007F4FC8010E949F090E9455058C010E94F1
:100400005805BC01C8010E948F0683E391E074C0C7
:10041000892B09F073C061157105F9F480E090E053
:100420000E940E0684E190E06AE070E00E948F0670
:1004300084E591E00E94110B8CE390E06CE370E0A6
:100440000E948F060E9455058C010E945805BC0130
:1004500068527040C801449642C061307105F9F499
:1004600080E090E00E940E0684E190E06AE070E097
:100470000E948F0684E591E00E94110B8CE390E0CE
:100480006CE370E00E948F060E9455058C010E946B
:100490005805BC0168527040C801449720C06230C2
:1004A000710561F580E090E00E940E0684E190E025
:1004B0006AE070E00E948F0685E691E00E94110BD1
:1004C0008CE390E06CE370E00E948F060E9455057B
:1004D0008C010E945805BC0168527040C8010E94FE
:1004E0009F090E9455058C010E945805BC01C80156
:1004F0000E948F0683E691E00E94110B1F910F91DD
:100500000895EF92FF920F931F93CF93DF938C0187
:10051000EB017A01681779072CF4CA0160E070E0FA
:100520000E94ED000C171D072CF4C70161E070E07C
:100530000E94ED000C171D0729F4C70162E070E06E
:100540000E94ED00DF91CF911F910F91FF90EF90EE
:100550000895CF93DF93EB0197FF07C077FF15C096
:1005600040E050E00E94810210C0009741F0161652
:1005700017068CF441E050E00E94810214C061151E
:10058000710589F482E090E00AC01C161D065CF437
:1005900083E090E004C077FF06C084E090E06FEF56
:1005A0007FEF0E94ED00DF91CF91089578940E9433
:1005B000020D0E94B6040E9431040E945006089564
:1005C0000E94D60280E090E060E070E00E94E90BBB
:1005D00080E090E060E070E00E94A90280E197E294
:1005E0000E948F048DEF9FEF63E070E00E94E90BA3
:1005F0008DEF9FEF63E070E00E94A90280E197E237
:100600000E948F0483E090E06DEF7FEF0E94E90B82
:1006100083E090E06DEF7FEF0E94A90280E197E216
:100620000E948F0486E090E063E070E00E94E90B96
:1006300086E090E063E070E00E94A90280E197E22A
:100640000E948F0483E090E066E070E00E94E90B76
:1006500083E090E066E070E00E94A90280E197E20A
:100660000E948F0483E090E063E070E00E94E90B59
:1006700083E090E063E070E00E94A90280E197E2ED
:100680000E948F048DEF9FEF6DEF7FEF0E94E90BCB
:100690008DEF9FEF6DEF7FEF0E94A90288E893E155
:1006A0000E948F048DEF9FEF6AEF7FEF0E94E90BAE
:1006B0008DEF9FEF6AEF7FEF0E94A90280E197E242
:1006C0000E948F048AEF9FEF6DEF7FEF0E94E90B8E
:1006D0008AEF9FEF6DEF7FEF0E94A90280E197E222
:1006E0000E948F048FEF9FEF6AE070E00E94E90B99
:1006F0008DEF9FEF63E070E00E94A90280E197E236
:100700000E948F048AE090E06FEF7FEF0E94E90B78
:1007100083E090E06DEF7FEF0E94A90280E197E215
:100720000E948F044FCF90916500282F30E080E029
:10073000A9014170507020FF81E09E7F982B90931B
:100740006500809165004115510511F490E001C0EC
:1007500092E08D7F892B809365008091650021FD5B
:1007600002C090E001C098E0877F892B80936500EC
:10077000809165008F7E809365008FEF8ABB6BBB95
:1007800085E0982F9A95F1F7909165009460909389
:100790006500982F9A95F1F7909165009B7F909353
:1007A00065008A95F1F71BBA1ABA08959091650011
:1007B000282F30E080E0A9014170507020FF81E0D7
:1007C0009E7F982B9093650080916500411551059F
:1007D00011F490E001C092E08D7F892B8093650039
:1007E0008091650021FD02C090E001C098E0877F04
:1007F000892B8093650080916500806180936500FE
:100800001ABA25E0822F8A95F1F7809165008460FD
:100810008093650085E18A95F1F789B39091650031
:100820009B7F90936500922F9A95F1F708951F93FF
:10083000CF93DF939091B803992371F0182F117023
:10084000CFEFDFEF812F0E94D603219787FD02C0F3
:1008500081E003C02097B1F780E0DF91CF911F9135
:1008600008958FEF8093B80380916400886080932F
:1008700064008091640080618093640080916400D2
:100880008460809364008091640081608093640040
:1008900080916400826080936400B89A1ABA809153
:1008A0006500877F80936500809165008F7E8093CF
:1008B0006500809165008B7F809365008091650065
:1008C0008E7F80936500809165008D7F80936500A9
:1008D000C098979B07C0979880EA9FE00197F1F72F
:1008E000979A04C080EA9FE00197F1F7C09A80E0F0
:1008F0000E941704882351F081E00E941704882386
:1009000011F082E001C081E08093B8038091B803C8
:100910008F3F11F41092B8038091B803089520EA34
:100920003FE004C0F9013197F1F701970097D1F743
:1009300008951092F5038093D603982F9F5F9093AC
:10094000D80396E99093F603F89403C078940000D6
:10095000F894B09BFBCF90EC9DB98FB996E998279E
:100960009093F403779A789480E00895B898C098AB
:10097000BB9AC39A80E00E94990408951F920F9237
:100980000FB60F920BB60F9211242F933F934F93F4
:100990005F936F937F938F939F93AF93BF93EF93E7
:1009A000FF939FB12091F60329272093F6038091AE
:1009B000F5038823B1F49093D4039C3130F0109266
:1009C000D6031092D40391E009C0492F50E0209142
:1009D000D80330E042175307FCF09F5F9093D80391
:1009E0001BC0482F50E06091D40370E06417750776
:1009F0002CF048525C4FFA0190830EC04150504099
:100A00004617570749F4222339F09091D5039F5F89
:100A10009093D5031092D4039091D603891750F484
:100A2000E82FF0E0E754FC4F20812FB99091F403B8
:100A3000922711C0891731F49091F4039FB9109255
:100A4000F4030BC09091D803891758F49FEF9FB916
:100A50009091F40390959093F4038F5F8093F50346
:100A600011C0B898C0981DB8B898C0988091D703A5
:100A70008F5F8093D70378948091D4030E94A40C55
:100A80000E949904FF91EF91BF91AF919F918F9137
:100A90007F916F915F914F913F912F910F900BBE7E
:100AA0000F900FBE0F901F9018958091FA03089534
:100AB0008091030408958093F7030895982F90522E
:100AC000903608F080E8805290E0FC01EE0FFF1FA6
:100AD000E80FF91FEE0FFF1FE958FE4F908180913C
:100AE000F903882309F49FE180E020E090FD8F5F07
:100AF0002F5F253011F09695F9CF08951F93CF936E
:100B0000DF93EC0110E005C021960E945E058F5F27
:100B1000180F88818823C1F7812FDF91CF911F9112
:100B200008951F93CF93DF93EC0110E007C0219647
:100B3000F90184910E945E058F5F180F9E01FE01EE
:100B400094919923A1F7812FDF91CF911F9108955F
:100B50008093F90308958091F9030895863130F464
:100B6000683020F46093F8038093040408950F9391
:100B70001F93DF93CF930F92CDB7DEB7182F685432
:100B8000883018F580E069830E94170480E069814D
:100B90000E94930380E00E941704612F660F660F86
:100BA000660F605C80E00E9493030BEF13E082E02D
:100BB0000E94170482E0F80161918F010E94930363
:100BC000F4E003301F0799F723C0185081E06983D0
:100BD0000E94170481E069810E94930381E00E94D2
:100BE0001704612F660F660F660F605C81E00E943C
:100BF00093030BEF13E083E00E94170483E0F801F6
:100C000061918F010E949303F4E003301F0799F76D
:100C10000F90CF91DF911F910F910895FF920F9345
:100C20001F93F82E18EB80E00E94170481E00E94C9
:100C3000170480E0612F0E94930381E0612F0E94DE
:100C4000930300E082E00E94170483E00E941704EF
:100C500082E06F2D0E94930383E06F2D0E94930327
:100C60000F5F003479F71F5F103CE9F680E00E94C7
:100C7000170481E00E94170480E068EB0E94930350
:100C800081E068EB0E9493031F910F91FF900895FC
:100C900080E00E940E061092F8031092040408955A
:100CA00080E00E94170480E06FE30E94930380E0DD
:100CB0000E94170480E060EC0E94930380E00E9491
:100CC000170480E060E40E94930380E00E94170410
:100CD00080E068EB0E94930381E00E94170481E0AA
:100CE0006FE30E94930381E00E94170481E060ECAF
:100CF0000E94930381E00E94170481E060E40E9457
:100D0000930381E00E94170481E068EB0E94930343
:100D100080E00E940E0681E08093F70308950F9310
:100D20001F93182F062F8093FA036093030480E02B
:100D30000E94170481E00E94170406950695069507
:100D4000085480E0602F0E94930381E0602F0E948E
:100D5000930380E00E94170481E00E94170411347D
:100D600038F080E060E40E94930381E0612F07C0C7
:100D7000612F605C80E00E94930381E060E40E9448
:100D800093031F910F910895EF92FF920F931F937A
:100D9000CF93DF9319EB47C00830E8F480E00E945E
:100DA000170480E0612F0E94930380E00E941704E3
:100DB0006F2D605C80E00E94930382E00E94D60366
:100DC000CBEFD3E082E00E94D603899384E0C33066
:100DD000D807C1F71BC081E00E94170481E0612F92
:100DE0000E94930381E00E94170481E06F2D0E940E
:100DF000930383E00E94D603CBEFD3E083E00E940D
:100E0000D603899384E0C330D807C1F7802F6E2DB5
:100E10000E94B7050F5F88E0F80E003109F0BCCFE3
:100E20001F5F103C31F0FF2400E037E4E32EE10EB9
:100E3000B3CFEBEFF3E0119284E0E330F807D9F79A
:100E400010E0812F67E00E94B7051F5F1031C9F7DE
:100E50008091F803882319F081508093F803DF9183
:100E6000CF911F910F91FF90EF900895EF92FF9215
:100E70000F931F93E82E162F8091FA0387FD39C038
:100E800000E0803408F001E0802F0E94170442E067
:100E9000F42EF00E8F2D0E94D6038F2D0E94D603C4
:100EA0009091F70392FF02C0E0949B7FE122992387
:100EB00019F41E2D182B08C0913021F41095182319
:100EC0001E2902C01E2D1827802F0E941704609132
:100ED000FA036064802F0E949303802F0E941704FE
:100EE0008F2D612F0E9493038091FA038F5F80936F
:100EF000FA031F910F91FF90EF90089590910304D2
:100F0000977061E070E002C0660F771F9A95E2F774
:100F1000882311F0862F02C0862F60E00E943607DA
:100F200008952F923F924F925F926F927F928F928D
:100F30009F92AF92BF92CF92DF92EF92FF920F9368
:100F40001F93DF93CF9300D000D000D0CDB7DEB792
:100F5000082F162F5A8349836090FA03E090030408
:100F60008E2D87702FEF30E0F22E01C0FF0C8A9596
:100F7000EAF7802F90E0019768E070E00E94F61099
:100F80006F5FA62EBB24C50173E0880F991F7A9569
:100F9000E1F744245524481A590ACC2468E0762EF7
:100FA0005FEF852E912CBC82AB8271C08E2D877035
:100FB000D72CD81A1D1548F48D2D811B940102C021
:100FC000359527958A95E2F7F2228D2D8C0D90E0CC
:100FD0008A9D10018B9D300C9A9D300C112480E06D
:100FE00090E09E838D8343C04D815E814770507039
:100FF0004115510571F5E695E695E695C1018E0F0F
:10100000911DFC01A981BA81EA0FFB1FE40DF51DBA
:1010100020E030E06D817E819491ABEFB3E08C9164
:1010200086958C9390FF02C080688C93119684E023
:10103000A330B80711F09695F2CF2F5F3F4F2830BD
:10104000310529F0AB81BC81EA0FFB1FE5CF7E8320
:101050006D8345505C4FFA0180818F216F2D0E9476
:1010600036072D813E812F5F3F4F3E832D83ED81DB
:10107000E01708F4B9CF1D1508F4D12E1D19ED0C99
:10108000CD0C862D6E2D0E948F06FF24FA9411231D
:1010900009F08CCF26960FB6F894DEBF0FBECDBFF9
:1010A000CF91DF911F910F91FF90EF90DF90CF9044
:1010B000BF90AF909F908F907F906F905F904F9078
:1010C0003F902F9008952F923F924F925F926F9290
:1010D0007F928F929F92AF92BF92CF92DF92EF92C8
:1010E000FF920F931F93DF93CF9300D000D000D0D7
:1010F000CDB7DEB7082F162F5A8349836090FA03C5
:10110000E09003048E2D87702FEF30E0F22E01C0A7
:10111000FF0C8A95EAF7802F90E0019768E070E075
:101120000E94F6106F5FA62EBB24C501A3E0880FB6
:10113000991FAA95E1F744245524481A590ACC244A
:10114000F8E07F2EEFEF8E2E912CBC82AB8271C027
:101150008E2D8770D72CD81A1D1548F48D2D811B24
:10116000940102C0359527958A95E2F7F2228D2DDC
:101170008C0D90E08A9D10018B9D300C9A9D300C57
:10118000112480E090E09E838D8343C04D815E8179
:10119000477050704115510571F5E695E695E69555
:1011A000C1018E0F911DFC01A981BA81EA0FFB1FBD
:1011B000E40DF51D20E030E06D817E819081ABEF84
:1011C000B3E08C9186958C9390FF02C080688C93DD
:1011D000119684E0A330B80711F09695F2CF2F5FF7
:1011E0003F4F2830310529F0AB81BC81EA0FFB1F4E
:1011F000E5CF7E836D8345505C4FFA0180818F215E
:101200006F2D0E9436072D813E812F5F3F4F3E8319
:101210002D83ED81E01708F4B9CF1D1508F4D12E08
:101220001D19ED0CCD0C862D6E2D0E948F06FF240E
:10123000FA94112309F08CCF26960FB6F894DEBFEE
:101240000FBECDBFCF91DF911F910F91FF90EF9017
:10125000DF90CF90BF90AF909F908F907F906F90D6
:101260005F904F903F902F900895AF92BF92CF9292
:10127000DF92EF92FF920F931F93CF93DF93A82EED
:10128000162FB090FA03F09003048F2D87702FEF84
:1012900030E0022F01C0000F8A95EAF7B8E0CB2EAC
:1012A000CFEFD0E022C08F2D8770EC2CE81A1E15EE
:1012B00048F48E2D811B9E0102C0359527958A9595
:1012C000E2F70223DA2C05C0802F602F0E94360738
:1012D000DA94DD20C9F71E1508F4E12E1E19FE0C64
:1012E0008B2D6F2D0E948F060FEF1123E1F6DF91FA
:1012F000CF911F910F91FF90EF90DF90CF90BF9013
:10130000AF900895682F81E00E94350908950F93EA
:101310001F93182F80910304877021E030E0022F83
:1013200001C0000F8A95EAF705C0802F602F0E9448
:10133000360711501123C9F71F910F9108959F92FD
:10134000AF92BF92CF92DF92EF92FF920F931F93D3
:10135000082F162FF090FA03E09003048F1561F424
:10136000E61618F4862F8E1904C00E948F068E2D63
:10137000811B0E9482095EC0DE2C6E1559F4F8169E
:1013800010F48F1904C00E948F068F2D801B0E94BD
:10139000870950C08F1528F4AF2CA81A99249A9465
:1013A00009C0F81618F09924AA2404C0A82EAF1872
:1013B000992493941E1528F4BE2CB11ACC24CA94F7
:1013C00009C0E11618F0CC24BB2404C0B12EBE180D
:1013D000CC24C39481E00E947E07BA14B0F4EA2CB6
:1013E000E694E194F90CEB0C1E1414F4EA18DC0CEE
:1013F0008F2D6D2D0E948F0681E00E947E07F90CD3
:101400008F2D8919801779F715C0DB2CD694D194CC
:10141000EC0CDA0C1D1414F4DB18F90C8F2D6E2D66
:101420000E948F0681E00E947E07EC0C8E2D8C19A5
:10143000811779F7802F612F0E948F061F910F91DE
:10144000FF90EF90DF90CF90BF90AF909F90089566
:101450008F929F92AF92BF92CF92DF92EF92FF92C4
:101460000F931F93CF93DF93062F982F90529036B0
:1014700008F080E8805296E0899FE0011124C95865
:10148000DE4F18818091F903882309F41FE1E02ED3
:10149000FF24E7FCF0948FEF90E06C010E2C02C06B
:1014A000CC0CDD1C0A94E2F7AA24BB24AE18BF08BA
:1014B0000A2C02C0959587950A94E2F7D82E85E00C
:1014C000882E912C8C0E9D1E10FF16C0898107FD61
:1014D00009C090E00E2C02C0880F991F0A94E2F711
:1014E0006C2D08C090E00A2C02C0959587950A944F
:1014F000E2F76D2D0E9436072196C815D90511F027
:101500001695E2CF07FD03C080E06C2D02C080E09D
:101510006D2D0E943607DF91CF911F910F91FF90A3
:10152000EF90DF90CF90BF90AF909F908F900895F5
:10153000FF920F931F93082FF090FA03109103046A
:101540001770612F0E94280A112391F06091030403
:10155000685F8F2D0E948F06612F6850802F0E9438
:10156000280A6091030468508091FA030E948F0654
:101570001F910F91FF9008951F93CF93DF93EC017C
:101580001092F90336C01A3069F410920404809165
:10159000F8038F5F8093F803883059F581E00E944B
:1015A000C40627C01D3029F180910404853160F004
:1015B000109204048091F8038F5F8093F8038830C1
:1015C00019F481E00E94C40690910404892F880FC9
:1015D000890F6091F803660F660F660F880F0E94EF
:1015E0008F06812F0E94980A809104048F5F809358
:1015F00004041991112339F6DF91CF911F910895B9
:10160000CF93DF93EC0105C02196F90184910E94EC
:10161000980A9E01FE0194919923B1F7DF91CF9131
:101620000895CF93DF93EC0103C021960E94980A9E
:1016300088818823D1F7DF91CF91089590E0282FFA
:1016400030E0F90183E0EE0FFF1F8A95E1F7E21B1E
:10165000F30BE55FFB4F80818F3F09F091E0892F0D
:101660000895F8949091430480E0E3E4F4E022913B
:10167000820F911D9093250480932404938180E030
:101680002281820F911D90932704809326049581D7
:1016900080E02481820F911D909329048093280477
:1016A000978180E02681820F911D90932B04809377
:1016B0002A04918580E02085820F911D90932D044E
:1016C00080932C047894F89420914C048091070422
:1016D00090910804820F911D30914D0420E0820FFB
:1016E000931F909321048093200420914E048091B5
:1016F000050490910604820F911D30914F0420E063
:10170000820F931F90933904809338049091510471
:1017100080E020915004820F911D9093610480938A
:1017200060049091530480E020915204820F911D37
:1017300090933704809336049091550480E0209173
:101740005404820F911D90930A0480930904909190
:10175000570480E020915604820F911D909341041C
:10176000809340047894F89490915A0480E02091FA
:101770005904820F911D9093230480932204909129
:101780005C0480E020915B04820F911D90935E04C5
:1017900080935D04789481E00895F89481E08093CB
:1017A0000B0478940895F8948AE080930B0478945D
:1017B00081E00895F89425E020930B0480930C04B5
:1017C00090930D0460930E0470930F04789481E05D
:1017D0000895F89422E020930B0480930C049093D6
:1017E0000D0460930E0470930F04789481E00895C3
:1017F0002091070430910804FC01E21BF30B9F01C8
:101800008091050490910604681B790BF89483E09D
:1018100080930B04E0930C0430930D0460930E044A
:1018200070930F044093100450931104789481E056
:101830000895F89424E020930B0480930C04909373
:101840000D0460930E0470930F04409310045093A2
:101850001104789481E0089578949091190420E11E
:1018600037E22150304011F09F3FD9F7F89496E0CD
:101870009093190480931A0460931B0440931C04F2
:10188000789481E0089581E00895F89430914F04B0
:1018900020E040914E04F901E40FF11DAF013091B9
:1018A0004D0420E0E0914C042E0F311DFC01E21BA1
:1018B000F30BF0930804E09307049B01241B350B02
:1018C0003093060420930504909321048093200410
:1018D0007093390460933804789481E00895789483
:1018E0002091120480E197E2019711F02F3FE1F778
:1018F000F89488E080931204789481E008957894B5
:101900002091120480E197E2019711F02F3FE1F757
:10191000F89487E080931204789481E00895789495
:101920004091120420E137E22150304011F04F3F46
:10193000D9F7F89429E0209312048093130490932C
:101940001404789481E0089590915F049F5F9093D0
:101950005F048B3141F4A2E4B4E0E9EDF3E00190DF
:101960000D928150E1F78FEF8093C7038093C003FE
:101970008093B90380910B048F3F11F480E00DC078
:10198000A9EBB3E0EBE0F4E087E001900D92815029
:10199000E1F78FEF80930B0487E0909112049F3F53
:1019A00079F0E82FF0E0E754FC4FA2E1B4E097E0D3
:1019B0000D9001929150E1F79FEF90931204895F8F
:1019C000909119049F3F81F0E82FF0E0E754FC4F1D
:1019D000A9E1B4E087E00D9001928150E1F78FEF2B
:1019E0008093190485E10895882311F487E0089510
:1019F00085E1089587E00E94210D90936304809310
:101A0000620408958F9A97988AE090E00E948F046C
:101A1000979A84E690E00E948F040895E1E6F0E052
:101A2000908121E030E002C0220F331F8A95E2F757
:101A3000209592239083E2E6F0E0808182238083E8
:101A4000089590E497B997B18770892B87B987EC8F
:101A500086B901C000003699FDCF84B195B1392F08
:101A600020E0280F311D8091640490916504820F5D
:101A7000931F9093650480936404C9010895809135
:101A800064049091650408952F923F924F925F9263
:101A90006F927F928F929F92AF92BF92CF92DF927E
:101AA000EF92FF920F931F93DF93CF93CDB7DEB7E3
:101AB00061970FB6F894DEBF0FBECDBF3C017F87A4
:101AC0006E876A01FC0117821682838181FD03C043
:101AD0006FEF7FEF71C39E012F5F3F4F398B288BD4
:101AE000F3012381EE85FF8523FD859123FF8191FD
:101AF000FF87EE87882309F45CC3853251F4EE85B5
:101B0000FF8523FD859123FF8191FF87EE87853235
:101B100029F490E0B3010E940B12E2CF982F10E05D
:101B2000882499241032B0F49B3269F09C3228F456
:101B3000903251F0933271F40BC09D3239F09033F2
:101B400049F4116028C01260146025C0186023C0D9
:101B5000106121C017FD2AC0892F80538A3078F484
:101B600016FF06C0FAE09F9E902C1124980E13C019
:101B70003AE0839E802C1124880E10620CC09E32A5
:101B800021F416FD16C3106406C09C3611F41068CB
:101B900002C0983659F4EE85FF8523FD959123FF09
:101BA0009191FF87EE87992309F0BCCF892F855447
:101BB000833020F4812F8061905E07C0892F855685
:101BC000833008F0A1C1812F8F7E86FD02C076E0B0
:101BD000972E6FE3F62EF822953619F4F0E4FF2ADB
:101BE00007C0963619F420E8F22A02C091109A94A0
:101BF000F7FE0BC03BE3391520F427E05CE3B52E7C
:101C00000EC0B92CB39427E00AC047E0491528F468
:101C100027E0BB2447E0942E02C0292DBB24C60137
:101C200004969D878C87F601608171818281938102
:101C3000AE014F5F5F4F0B2D0E941D116C0109819A
:101C4000202E332400FF04C003FD02C01DE209C0A2
:101C5000F1FE02C01BE205C0F2FC02C010E001C0B0
:101C600010E2C1018C709070892BB9F1112311F42D
:101C700083E001C084E0881510F088240AC0881A27
:101C8000F3FC07C080E290E0B3010E940B128A943B
:101C9000C9F7112329F0812F90E0B3010E940B12A4
:101CA00023FE03C005E910E00EC009E910E00BC0F7
:101CB000E114F10409F0805290E0B3010E940B128C
:101CC0000F5F1F4F05C0EF2CFF24F0E1EF22FF2430
:101CD000F8018491882361F714C1F7FE12C0BC0C8F
:101CE00024FE04C08A81813309F4BA941B141CF0C9
:101CF000BB24B3942DC0F8E0FB1550F538E0B32EAB
:101D000027C0F6FC25C0892D90E08C159D054CF070
:101D10002CEFC2162FEFD20624F030E8F32A01C0D0
:101D20009A94992049F0E2E0F0E0EC0FFD1FE90DF4
:101D3000F11D80818033A1F3F7FE0AC0B92CB39462
:101D4000892D90E0C816D90614F0992401C09C187A
:101D5000F7FC03C025E030E009C01C141D041CF092
:101D600021E030E003C096012F5F3F4F112311F0B7
:101D70002F5F3F4F992029F0892D90E00196280F81
:101D8000391F882D90E02817390714F0882401C0E6
:101D9000821A4F2C5524C20189709070892B39F01A
:101DA00008C080E290E0B3010E940B128A94882060
:101DB000C1F7112329F0812F90E0B3010E940B128B
:101DC00043FE07C008C080E390E0B3010E940B12FD
:101DD0008A948820C1F7F7FE46C08601D7FE02C06C
:101DE00000E010E076010894E11CF11CE01AF10A11
:101DF00041E050E04C0F5D1FE40EF51E26014B182C
:101E00005108892D90E0AA24BB24A81AB90A5FEFD3
:101E10000F3F150729F48EE290E0B3010E940B12E8
:101E2000C016D10634F0401651061CF4F70180812B
:101E300001C080E3015010400894E11CF11C0A1518
:101E40001B052CF090E0B3010E940B12E0CF0C15A3
:101E50001D0539F49A81963318F4953311F424FE54
:101E600081E390E04BC08A81813309F00F7E90E0DE
:101E7000B3010E940B129920A1F08EE290E0B30111
:101E80000E940B1212E0E1E0F0E0EC0FFD1FE10F09
:101E9000F11D1F5F808190E0B3010E940B129A94A4
:101EA00091F744FC03C085E690E002C085E490E031
:101EB000B3010E940B12D7FC05C0C114D10441F438
:101EC00004FF06C0D094C194D108D3948DE201C020
:101ED0008BE290E0B3010E940B1280E305C08F5F9C
:101EE00026EF3FEFC20ED31E3AE0C316D104BCF773
:101EF00090E0B3010E940B12C601C096B3010E948C
:101F00000B12CC84DD8452C1933631F0933799F0B3
:101F1000933509F059C023C0F601808189835E01A1
:101F20000894A11CB11C22E030E0C20ED31E21E0B7
:101F3000E22EF12C12C0F601A080B18016FD03C084
:101F40006FEF7FEF02C0692D70E022E030E0C20E3B
:101F5000D31EC5010E9400127C011F7713C0F60139
:101F6000A080B18016FD03C06FEF7FEF02C0692D26
:101F700070E022E030E0C20ED31EC5010E94F511D0
:101F80007C01106813FF07C01BC080E290E0B30122
:101F90000E940B128A94882D90E0E816F906A8F3A7
:101FA0000FC0F50117FD859117FF81915F0190E04A
:101FB000B3010E940B1281108A940894E108F10881
:101FC000E114F10471F7F2C0943611F0993689F5F5
:101FD00017FF08C0F601208131814281538184E0DE
:101FE00090E00AC0F601808191819C01442737FD71
:101FF0004095542F82E090E0C80ED91E9FE6F92E3E
:10200000F12257FF09C050954095309521953F4FDB
:102010004F4F5F4F90E8F92ACA01B901AE014F5FF7
:102020005F4F2AE030E00E943712E82EE889EE1A6E
:1020300041C0953721F41F7E2AE030E01CC0197F93
:102040009F3661F0903720F4983509F0B2C00FC088
:10205000903739F0983709F0ACC004C028E030E080
:102060000AC0106114FD146020E130E004C014FDCA
:10207000166020E132E017FF08C0F601608171812F
:102080008281938144E050E008C0F6018081918113
:10209000BC0180E090E042E050E0C40ED51EAE01ED
:1020A0004F5F5F4F0E943712E82E5889E51A8FE77D
:1020B000F82EF122F6FE0BC08EEFF822E91438F468
:1020C000F4FE07C0F2FC05C09FEEF92202C01E2DEF
:1020D00001C0192DF4FE0DC0FE01EE0DF11D808131
:1020E000803319F4E9EEFE2208C01F5FF2FE05C03E
:1020F00003C08F2D867809F01F5F0F2DF3FC14C0ED
:10210000F0FE0FC0181510F09E2C0BC09E2C980CE2
:10211000911A182D06C080E290E0B3010E940B12C4
:102120001F5F1815C0F304C0181510F4811A01C000
:10213000882404FF0FC080E390E0B3010E940B12DB
:1021400002FF1DC001FD03C088E790E00EC088E5D6
:1021500090E00BC0802F867891F001FF02C08BE2E7
:1021600001C080E2F7FC8DE290E0B3010E940B1207
:1021700006C080E390E0B3010E940B129A94E91428
:10218000C0F3EA94E1E0F0E0EC0FFD1FEE0DF11D6D
:10219000808190E0B3010E940B12EE2091F706C0FF
:1021A00080E290E0B3010E940B128A948820C1F76C
:1021B00097CCF30166817781CB0161960FB6F894D5
:1021C000DEBF0FBECDBFCF91DF911F910F91FF906A
:1021D000EF90DF90CF90BF90AF909F908F907F90C7
:1021E0006F905F904F903F902F90089597FB092E2E
:1021F00007260AD077FD04D00CD006D000201AF4B0
:10220000709561957F4F0895F6F7909581959F4F52
:102210000895AA1BBB1B51E107C0AA1FBB1FA6172D
:10222000B70710F0A61BB70B881F991F5A95A9F77F
:1022300080959095BC01CD010895283008F027E0E5
:102240003327DA01990F311D87FD916000966105F2
:10225000710539F432602E5F3D9330E32A95E1F742
:1022600008959F3F30F080387105610509F03C5FAB
:102270003C5F3D93913008F08068911DDF93CF93D0
:102280001F930F93FF92EF92192F987F9695E92F46
:1022900096959695E90FFF27E950FF4F9927332729
:1022A000EE24FF24A701E70105900894079428F481
:1022B000360FE71EF81E491F511D660F771F881F36
:1022C000991F0694A1F70590079428F4E70EF81ECD
:1022D000491F561FC11D770F881F991F661F06943F
:1022E000A1F70590079428F4F80E491F561FC71F41
:1022F000D11D880F991F661F771F0694A1F70590BF
:10230000079420F4490F561FC71FD81F990F661F47
:10231000771F881F0694A9F784911095177041F0D4
:10232000D695C79557954795F794E7941A95C1F7B1
:10233000EDE9F0E0689415901591359165919591CE
:1023400005907FE27395E118F10A430B560BC90B18
:10235000D009C0F7E10CF11E431F561FC91FD01D45
:102360007EF4703311F48A95E6CFE894015030F092
:10237000080F0AF40027021708F4202F2395022FD4
:102380007A3328F079E37D932A95E9F710C07D939D
:102390002A9589F60694979567953795179517941A
:1023A000E118F10A430B560BC90BD00998F023959D
:1023B0007E9173957A3308F070E37C932013B8F71D
:1023C0007E9170617D9330F0839571E37D9370E32E
:1023D0002A95E1F71124EF90FF900F911F91CF9173
:1023E000DF91992787FD90950895FC010590615034
:1023F00070400110D8F7809590958E0F9F1F08951B
:10240000FC016150704001900110D8F780959095C3
:102410008E0F9F1F08950F931F93CF93DF938C010F
:10242000EB018B8181FF1BC082FF0DC02E813F819C
:102430008C819D812817390764F4E881F981019323
:10244000F983E88306C0E885F985802F0995892BF3
:1024500031F48E819F8101969F838E8302C00FEF9E
:102460001FEFC801DF91CF911F910F910895FA01DD
:10247000AA27283051F1203181F1E8946F936E7FC3
:102480006E5F7F4F8F4F9F4FAF4FB1E03ED0B4E0B4
:102490003CD0670F781F891F9A1FA11D680F791FF5
:1024A0008A1F911DA11D6A0F711D811D911DA11D06
:1024B00020D009F468943F912AE0269F1124301916
:1024C000305D3193DEF6CF010895462F4770405DB1
:1024D0004193B3E00FD0C9F7F6CF462F4F70405D60
:1024E0004A3318F0495D31FD4052419302D0A9F7BB
:1024F000EACFB4E0A6959795879577956795BA95B5
:10250000C9F700976105710508959B01AC010A2E7A
:1025100006945795479537952795BA95C9F7620F51
:0E252000731F841F951FA01D0895F894FFCF10
:10252E0053544F5000526F746174696F6E2072690C
:10253E00676874003C00526F746174696F6E206C32
:10254E00656674003E00666F7277617264206C651A
:10255E006674007600666F727761726420726967C6
:10256E00687400666F727761726420737472616949
:10257E00676874006261636B776172642072696769
:10258E006874005E006261636B77617264207374BD
:10259E0072616967687400030000000000040000A7
:1025AE005F00000E00070007001F147F147F141F2A
:1025BE00242A7F2A121F23130864621F36495522CC
:1025CE00500600050300000E001C2241000E0041C3
:1025DE00221C001F14083E08141F08083E08080697
:1025EE0000A06000000F08080808080600606000E0
:1025FE00000E00601C03001F3E5149453E0E004276
:10260E007F40001F42615149461D2141454B311FFC
:10261E001814127F101D2745454539173C4A494964
:10262E00301E01710905031D36494949361D0649FB
:10263E0049291E0600363600000600AC6C00000F5D
:10264E0008142241000F14141414141E00412214F5
:10265E00081F02015109061F324979413E1F7C12A3
:10266E0011127C177F49494936173E414141221FBD
:10267E007F4141221C177F49494941177F090909AA
:10268E0001173E4149497A177F0808087F0E00411D
:10269E007F41001F2040413F011F7F081422411738
:1026AE007F404040401F7F020C027F1F7F040810B6
:1026BE007F173E4141413E177F09090906173E41EA
:1026CE004141BE1D7F091929461746494949311F07
:1026DE0001017F0101173F4040403F1F1F20402056
:1026EE001F1F3F4038403F1F63140814631F070825
:1026FE007008071F61514945430E007F4141000E8E
:10270E0000031C60000E0041417F000E0402010216
:10271E00041F40404040400C0000030400172054AA
:10272E00545478177F484444381738444444201D85
:10273E00384444487F17385454541817087E0901FA
:10274E00021718A4A4A478177F080404780E004476
:10275E007D40000D4080847D000F7F102844000EC8
:10276E0000417F40001F7C04780478177C08040425
:10277E007817384444443817FC2424241817182496
:10278E002424FC177C0804040817485454542017BA
:10279E00043F4440201D3C4040207C1F1C20402014
:1027AE001C1F3C4030403C1F4428102844171CA0DE
:1027BE00A0A07C1F4464544C440E00083641000413
:1027CE0000007F00000E00413608001F02010204C7
:0827DE00021FAA55AA55AA002A
:00000001FF
